:020000040800F2
:100000008006002035020008F907000845060008B0
:10001000A1060008A1030008D50D0008000000009B
:10002000000000000000000000000000E90B0008D4
:10003000A3030008000000000F0B0008A10C00083B
:100040004F0200084F0200084F0200084F0200084C
:100050004F0200084F0200084F0200084F0200083C
:100060004F0200084F0200084F0200084F0200082C
:100070004F0200084F0200084F0200084F0200081C
:100080004F0200084F0200084F0200080000000065
:100090000000000000000000000000004F02000807
:1000A0004F0200084F0200084F0200084F020008EC
:1000B0004F0200084F0200084F0200084F020008DC
:1000C0004F0200084F0200084F0200084F020008CC
:1000D0004F0200084F0200084F0200080000000015
:1000E0004F0200084F0200084F0200080000000005
:1000F0000000000000000000000000004F020008A7
:10010000000000004F0200084F0200084F020008E4
:1001100000000000000000000000000000000000DF
:100120004F0200084F0200084F0200084F0200086B
:100130004F02000800000000000000000000000066
:100140000000000000000000000000004F02000856
:100150004F0200084F0200084F0200084F0200083B
:100160004F0200084F0200080000000000000000DD
:10017000000000000000000000000000000000007F
:10018000000000004F020008000000000000000016
:100190004F02000800F002F800F03CF80AA090E8D6
:1001A000000C82448344AAF10107DA4501D100F032
:1001B00031F8AFF2090EBAE80F0013F0010F18BFC3
:1001C000FB1A43F00103184794120000B412000018
:1001D000103A24BF78C878C1FAD8520724BF30C873
:1001E00030C144BF04680C60704700000023002445
:1001F00000250026103A28BF78C1FBD8520728BF37
:1002000030C148BF0B6070471FB500F029FE1FBD0D
:1002100010B510BD00F031F81146FFF7F5FF00F002
:10022000DAFD00F04FF803B4FFF7F2FF03BC00F073
:1002300057F800000948804709480047FEE7FEE7F5
:10024000FEE7FEE7FEE7FEE7FEE7FEE7FEE7FEE786
:1002500004480549054A064B70470000A50C0008F4
:100260009501000880000020800600208002002008
:1002700080020020704770477047754600F02CF8E8
:10028000AE4605006946534620F00700854618B083
:1002900020B5FFF7DDFFBDE820404FF000064FF02E
:1002A00000074FF000084FF0000B21F00701AC46AB
:1002B000ACE8C009ACE8C009ACE8C009ACE8C009CA
:1002C0008D46704710B50446AFF300802046BDE868
:1002D0001040FFF7A8BF0000004870472000002032
:1002E00001491820ABBEFEE726000200704700005F
:1002F000F0B587B00121084600F00AFC0121042076
:1003000000F006FC0121202000F010FC4FF40060FA
:10031000059002258DF8185000248DF81A408DF8AC
:10032000195001268DF81B601A4F05A9384600F0B8
:1003300057F808220B21384600F090F880200590ED
:100340008DF818608DF81A408DF819508DF81B60E3
:10035000114D05A9284600F043F88021284600F0F9
:1003600094F84FF416500190ADF80840ADF80A40EB
:10037000ADF80C40ADF810400820ADF80E00074C69
:1003800001A9204600F0C8FC0121204600F0B8FC7D
:1003900007B0F0BD00000240000802400014014018
:1003A000FEE7704710B504460B4800F0CDFB0A4944
:1003B0000A4A4FF0E0204968B1FBF2F16143416124
:1003C00000218161016941F0050101610169C903F1
:1003D000FCD50421016110BD1000002040420F0037
:1003E0002DE9F041002201274FF0030C07FA02F536
:1003F0000B682B40AB422CD1066853000CFA03F477
:10040000A64306600E79D0F800809E4046EA0806B2
:1004100006600E79012E01D0022E12D18668A64305
:1004200086604E79D0F808809E4046EA08068660CD
:100430004668AE43466045688E799640B6B235430D
:100440004560C568A543C560CC799C40C3681C4322
:10045000C460521C102AC9D3BDE8F08110B54B0707
:10046000DB0E9A40C90800EB8100016A0F249C4012
:10047000A1430162016A1143016210BD02460020DE
:1004800012690A4200D00120704701837047002A98
:1004900001D001837047418370472DE9FF5F81469A
:1004A0008A46934603213D2000F07EF8044604214D
:1004B0003D2000F079F8054605213D2000F074F854
:1004C000064606213D2000F06FF8074607213D2033
:1004D00000F06AF8804608213D2000F065F845EA02
:1004E0000421A9F8001047EA0621AAF8001040EA02
:1004F0000820ABF800003B21D02000F055F804465E
:100500003C21D02000F050F8039940EA04200880F4
:100510003D21D02000F048F804463E21D02000F0D4
:1005200043F80E9940EA042008803F21D02000F0D3
:100530003BF804464021D02000F036F80F9940EAFD
:10054000042008804321D02000F02EF804464421E6
:10055000D02000F029F8109940EA042008804521B5
:10056000D02000F021F804464621D02000F01CF8ED
:10057000119940EA042008804721D02000F014F8A7
:1005800004464821D02000F00FF8129940EA0420D8
:100590000880BDE8FF9F10B500F084F800F053F824
:1005A000BDE8104000F03AB870B504460D4600F0C2
:1005B000EBF8204600F0D4F800F09EF8284600F052
:1005C000CFF800F099F800F0DFF844F0010000F0F7
:1005D000C7F800F091F800F09EF80446012000F002
:1005E000B4F800F0E0F8204670BD70B506460C4641
:1005F000154600F0C9F8304600F0B2F800F07CF87B
:10060000204600F0ADF800F077F8284600F0A8F892
:1006100000F072F8BDE8704000F0C5B810B500F009
:1006200041F8702200213C20FFF7DFFF202201214A
:100630003C20FFF7DAFF00220221BDE810403C20F9
:10064000FFF7D3BFFEE710B500F02CF801226B21B5
:10065000D020FFF7CAFF00226C21D020FFF7C5FF92
:1006600009221921D020FFF7C0FF06221A21D0202D
:10067000FFF7BBFF18221B21D020FFF7B6FF18227F
:100680001C21D020FFF7B1FF80223721D020FFF7B7
:10069000ACFF02226A21BDE81040D020FFF7A5BFC1
:1006A000FEE700007CB50121022000F031FA4FF492
:1006B0008164009403208DF8050001208DF804006A
:1006C0008DF80600044D69462846FFF789FE21464D
:1006D0002846FFF7DAFE7CBD0004024010B5082171
:1006E0000448FFF7CBFE04460A20FFF75BFE2046D6
:1006F00010BD00000004024010B5012000F06EF8AB
:10070000012000F05DF8FFF7E9FF0446002000F04B
:1007100057F8204610BD70B50025012000F05EF8A6
:1007200000248026012000F04BF8FFF7D7FF0128B6
:1007300002D126FA04F00543002000F041F8641CC1
:10074000E4B2082CEED3284670BD10B500F046F890
:10075000012000F035F8BDE81040002000F030B86E
:1007600070B505460024802626FA04F0284000F0E3
:1007700035F8012000F024F8002000F021F8641C76
:10078000E4B2082CF0D370BD10B5012000F026F8BB
:10079000012000F015F8002000F020F8BDE810401E
:1007A000002000F00DB810B5002000F017F801206F
:1007B00000F006F8BDE81040012000F00FB800007E
:1007C00010B502464FF480610348FFF760FEBDE8B4
:1007D00010400A20FFF7E6BD0004024010B50246B3
:1007E00008210448FFF753FEBDE810400A20FFF738
:1007F000D9BD000000040240704770B500250021FB
:10080000284600F0F3F80024002000F06FF9641C83
:10081000E4B2802CF8D36D1CEDB2082DEFD370BD7F
:100820007CB50121022000F081F901208DF804003F
:1008300002208DF80500C40100940B4E6946304635
:10084000FFF7CEFD6500009569463046FFF7C8FD0D
:10085000012221463046FFF71AFE01222946304682
:10086000FFF715FE7CBD0000000402402DE9F047B3
:1008700007460024134D4FF080094FF40078AE1561
:1008800029FA04F23A4041462846FFF700FE0122C9
:1008900031462846FFF7FBFD002231462846FFF788
:1008A000F6FD641CE4B2082CEAD301223146284646
:1008B000FFF7EDFD31462846BDE8F0470022FFF77F
:1008C000E6BD00000004024070B501220B4D540249
:1008D00021462846FFF7DBFD012216023146284655
:1008E000FFF7D5FD002221462846FFF7D0FD31460F
:1008F0002846BDE870400022FFF7C9BD0004024051
:1009000070B50A4D4FF40074002221462846FFF7C7
:10091000BEFD012211022846FFF7B9FD21462846F7
:10092000BDE870400122FFF7B2BD000000040240A4
:1009300010B500214FF47A720020401C9042FCD385
:10094000491C9142F8D3FFF76BFFAE2000F0BDF8D1
:10095000D52000F0BAF8802000F0B7F8A82000F009
:10096000B4F83F2000F0B1F8D32000F0AEF800203A
:1009700000F0ABF8402000F0A8F8A12000F0A5F8A6
:10098000C82000F0A2F8DA2000F09FF8122000F052
:100990009CF8812000F099F8CF2000F096F8D9203B
:1009A00000F093F8F12000F090F8DB2000F08DF8D3
:1009B000302000F08AF8A42000F087F8A62000F08C
:1009C00084F88D2000F081F8142000F07EF8AF202C
:1009D00000F07BF8BDE81040FFF70FBF0346012091
:1009E00000E05843491E4A1CFBD1704710B50C4625
:1009F00040F0B00000F069F8102040EA141000F058
:100A000064F804F00F00BDE8104000F05EB800008C
:100A10002DE9F0411546491E461ECF007006F9B279
:100A2000000EFFF7E3FF00240E48203D00EB051504
:100A3000285D00F05BF8641CE4B2082CF8D30120B8
:100A400000EB4600F9B2C0B2FFF7D0FF002428192E
:100A5000007A00F04BF8641CE4B2082CF7D3BDE830
:100A6000F08100006A0E00082DE9F04782468946B1
:100A700017469846002F05DB2B2249465046FFF7C4
:100A8000C7FF05E02D2249465046FFF7C1FF7F42D0
:100A900000240A2515E0A8EB0401491E0A20FFF7EF
:100AA0009DFFB7FBF0F6B6FBF5F005FB106209EB16
:100AB0000400401CC1B230325046FFF7A9FF641C4D
:100AC000E4B24445E7D3BDE8F08710B50446FFF72C
:100AD000FBFE7820FFF7CAFE0020FFF7C7FE204686
:100AE000FFF7C4FEBDE81040FFF70ABF10B504468B
:100AF000FFF7EAFE7820FFF7B9FE4020FFF7B6FEC9
:100B00002046FFF7B3FEBDE81040FFF7F9BE70477F
:100B1000054A002903D0116801431160704711682C
:100B2000814311607047000030380240054A0029B7
:100B300003D011680143116070471168814311604F
:100B4000704700004438024070B5244B196801F02A
:100B50000C01234C00291ED0661004291DD0082941
:100B60001DD00460196801F0F00109091D4A545CA8
:100B70000168E14041601C6804F4E054A40A145D7B
:100B800021FA04F484601B6803F460435B0BD25CBD
:100B9000D140C16070BD0460E4E70660E2E70F4A3F
:100BA000121F1168C1F38055116801F03F0135B182
:100BB000B6FBF1F11468C4F38814614305E0B4FB9B
:100BC000F1F11468C4F3881461431268C2F301425E
:100BD000521C5200B1FBF2F10160C3E70838024039
:100BE0000024F40000000020704700000CB5002233
:100BF000019200922649086840F4803008604FF462
:100C0000A043086800F4003000900198401C019057
:100C1000009810B901989842F3D10868800302D572
:100C20000120009000E00092009801282FD1184880
:100C30004030026842F0805202601648026842F476
:100C40004042026012480830026802600268026096
:100C5000026842F480520260031F0F4A1A600A6859
:100C600042F080720A600A689201FCD50B4940F29A
:100C700002720A60016821F003010160016841F01D
:100C8000020101600168C1F381010229FAD10CBDA2
:100C9000003802400070004019544107003C0240F7
:100CA0007047000010B51248016841F470010160FE
:100CB0001048016841F0010101600E4A002108322C
:100CC000116002680C4B1A400260031D0B4A1A6047
:100CD000026822F48022026006480C300160FFF7AF
:100CE00085FF03494FF000608039086010BD0000A7
:100CF00088ED00E000380240FFFFF6FE10300024CF
:100D0000002904D0818941F4005181817047818993
:100D100021F40051818170477FB504460D46208A39
:100D200020F44051E88808432082A08941F20C61F8
:100D30008843A9882A8911436A8902431143A18102
:100D4000A08A20F44071A8890843A0826846FFF772
:100D5000FBFE1E48844202D01D48844201D1039804
:100D600000E00298A189090408D500EBC00101EB5D
:100D7000001029684900B0FBF1F007E000EBC0016A
:100D800001EB001029688900B0FBF1F06422B0FB90
:100D9000F2F109010B096FF018056B4300EB8300BA
:100DA000A3891D044FF0320307D503EBC000B0FB4D
:100DB000F2F000F00700084306E003EB0010B0FB80
:100DC000F2F000F00F00084320817FBD00100140C9
:100DD00000140140FEE78EB0FFF7DDFBFFF788FA55
:100DE000FFF7A6FDFFF709FD05AC06AD07AF08AE9E
:100DF0000DF12408CDE90086CDE902750AAB0BAAF6
:100E00000CA90DA80494FFF748FB0523BDF9282081
:100E100001210220FFF728FE0523BDF9242001212E
:100E20000320FFF721FE0523BDF920200121042026
:100E3000FFF71AFE0523BDF91C2008210220FFF749
:100E400013FE0523BDF9182008210320FFF70CFE2F
:100E50000523BDF9142008210420FFF705FEC9E78A
:100E60004FF04070E1EE100A7047000000000000F3
:100E700000000000000000000000000000F800007A
:100E80000000000000333000000000100C06100CC1
:100E90000600000000000000000040C07840C0785C
:100EA0004000043F04043F040400007088FC083044
:100EB0000000001820FF211E0000F008F000E018DC
:100EC000000000211C031E211E0000F00888700095
:100ED00000001E2123241927211010160E000000E7
:100EE00000000000000000000000000000E0180406
:100EF0000200000000071820400000020418E00073
:100F000000000040201807000000404080F08040B2
:100F100040000202010F01020200000000F0000088
:100F200000000101011F010101000000000000009C
:100F3000000080B070000000000000000000000011
:100F4000000000010101010101010000000000009A
:100F50000000003030000000000000000000806051
:100F60001804006018060100000000E010080810D6
:100F7000E000000F102020100F00001010F80000FB
:100F800000000020203F2020000000700808088892
:100F90007000003028242221300000300888884862
:100FA00030000018202020110E000000C02010F892
:100FB000000000070424243F240000F80888880863
:100FC00008000019212020110E0000E01088881868
:100FD0000000000F112020110E0000380808C8384A
:100FE00008000000003F000000000070880808882A
:100FF0007000001C222121221C0000E010080810B3
:10100000E0000000312222110F00000000C0C000EB
:1010100000000000003030000000000000800000F0
:1010200000000000806000000000000080402010F0
:1010300008000001020408102000404040404040E9
:10104000400004040404040404000008102040804C
:101050000000002010080402010000704808080881
:10106000F0000000003036010000C030C828E81051
:10107000E0000718272423140B000000C038E0000C
:101080000000203C23020227382008F88888887056
:101090000000203F202020110E00C0300808080862
:1010A0003800071820202010080008F80808081049
:1010B000E000203F202020100F0008F88888E80872
:1010C0001000203F20202320180008F88888E80816
:1010D0001000203F200003000000C030080808383E
:1010E000000007182020221E020008F8080000084F
:1010F000F808203F210101213F20000808F80808D6
:1011000000000020203F2020000000000808F80810
:101110000800C08080807F00000008F888C0281880
:101120000800203F20012638200008F808000000B1
:101130000000203F20202020300008F8F800F8F8B8
:101140000800203F003F003F200008F830C00008A2
:10115000F808203F200007183F00E010080808109A
:10116000E0000F10202020100F0008F808080808E1
:10117000F000203F210101010000E01008080810E4
:10118000E0000F18242438504F0008F88888888819
:101190007000203F2000030C3020007088080808F1
:1011A00038000038202121221C00180808F80808FF
:1011B00018000000203F2000000008F80800000888
:1011C000F808001F202020201F000878880000C891
:1011D0003808000007380E010000F80800F8000881
:1011E000F800033C0700073C03000818688080688B
:1011F000180820302C03032C30200838C800C838C9
:1012000008000000203F2000000010080808C8382F
:1012100008002038262120201800000000FE0202CD
:1012200002000000007F40404000000C30C0000081
:101230000000000000010638C00000020202FE00AB
:101240000000004040407F00000000000402020255
:10125000040000000000000000000000000000008A
:101260000000808080808080808000020204000076
:10127000000000000000000000000000808080806E
:1012800000000019242222223F2008F8008080005C
:101290000000003F112020110E000000008080801F
:1012A0000000000E11202020110000000080808826
:1012B000F800000E112020103F2000008080808068
:1012C0000000001F222222221300008080F0888864
:1012D00088180020203F20200000000080808080AF
:1012E0008000006B94949493600008F800808080E4
:1012F0000000203F210000203F200080989800003F
:1013000000000020203F202000000000008098986E
:10131000000000C08080807F000008F8000080800E
:101320008000203F24022D302000000808F8000033
:1013300000000020203F20200000808080808080EE
:101340008000203F20003F20003F80800080808080
:101350000000203F210000203F200000808080808E
:101360000000001F202020201F00808000808000BF
:10137000000080FFA12020110E000000008080806E
:101380008000000E112020A0FF80808080008080DF
:10139000800020203F21200001000000808080800C
:1013A00080000033242424241900008080E0808001
:1013B00000000000001F202000008080000000804E
:1013C0008000001F202020103F20808080000080AF
:1013D000808000010E3008060100808000800080BF
:1013E00080800F300C030C300F0000808000808064
:1013F00080000020312E0E3120008080800000808F
:10140000808080818E70180601000080808080803E
:1014100080000021302C2221300000000000807C60
:10142000020200000000003F404000000000FF00FA
:10143000000000000000FF0000000002027C8000AD
:1014400000000040403F00000000000601010202D1
:101450000404000000000000000000007C140008EC
:101460000000002010000000D00100088C140008CB
:101470001000002070060000EC01000800000000D1
:0C1480000102030401020304060708092E
:0400000508000235B8
:00000001FF
