:020000040800F2
:10000000800600203502000801040008FD030008F6
:10001000FF030008EF020008150A000800000000B6
:100020000000000000000000000000002906000899
:10003000F1020008000000004D050008E10600087C
:100040004F0200084F0200084F0200084F0200084C
:100050004F0200084F0200084F0200084F0200083C
:100060004F0200084F0200084F0200084F0200082C
:100070004F0200084F0200084F0200084F0200081C
:100080004F0200084F0200084F0200080000000065
:100090000000000000000000000000004F02000807
:1000A0004F0200084F0200084F0200084F020008EC
:1000B0004F0200084F0200084F0200084F020008DC
:1000C0004F0200084F0200084F0200084F020008CC
:1000D0004F0200084F0200084F0200080000000015
:1000E0004F0200084F0200084F0200080000000005
:1000F0000000000000000000000000004F020008A7
:10010000000000004F0200084F0200084F020008E4
:1001100000000000000000000000000000000000DF
:100120004F0200084F0200084F0200084F0200086B
:100130004F02000800000000000000000000000066
:100140000000000000000000000000004F02000856
:100150004F0200084F0200084F0200084F0200083B
:100160004F0200084F0200080000000000000000DD
:10017000000000000000000000000000000000007F
:10018000000000004F020008000000000000000016
:100190004F02000800F002F800F03CF80AA090E8D6
:1001A000000C82448344AAF10107DA4501D100F032
:1001B00031F8AFF2090EBAE80F0013F0010F18BFC3
:1001C000FB1A43F0010318478C080000AC0800003C
:1001D000103A24BF78C878C1FAD8520724BF30C873
:1001E00030C144BF04680C60704700000023002445
:1001F00000250026103A28BF78C1FBD8520728BF37
:1002000030C148BF0B6070471FB500F01DFC1FBD1B
:1002100010B510BD00F031F81146FFF7F5FF00F002
:10022000FAFB00F04FF803B4FFF7F2FF03BC00F055
:1002300057F800000948804709480047FEE7FEE7F5
:10024000FEE7FEE7FEE7FEE7FEE7FEE7FEE7FEE786
:1002500004480549054A064B70470000E5060008BA
:100260009501000880000020800600208002002008
:1002700080020020704770477047754600F02CF8E8
:10028000AE4605006946534620F00700854618B083
:1002900020B5FFF7DDFFBDE820404FF000064FF02E
:1002A00000074FF000084FF0000B21F00701AC46AB
:1002B000ACE8C009ACE8C009ACE8C009ACE8C009CA
:1002C0008D46704710B50446AFF300802046BDE868
:1002D0001040FFF7A8BF0000004870472000002032
:1002E00001491820ABBEFEE7260002007047FEE77A
:1002F000704770B504464FF47A7502E0284600F066
:1003000011F8641EA4B2F9D270BD70B504464FF462
:100310007A7502E02846FFF7ECFF641EA4B2F9D21A
:1003200070BD000010B504460B4800F02DF90A49D5
:100330000A4A4FF0E0204968B1FBF2F161434161A4
:1003400000218161016941F0050101610169C90371
:10035000FCD50421016110BD1000002040420F00B7
:100360002DE9F041002201274FF0030C07FA02F5B6
:100370000B682B40AB422CD1066853000CFA03F4F7
:10038000A64306600E79D0F800809E4046EA080633
:1003900006600E79012E01D0022E12D18668A64386
:1003A00086604E79D0F808809E4046EA080686604E
:1003B0004668AE43466045688E799640B6B235438E
:1003C0004560C568A543C560CC799C40C3681C43A3
:1003D000C460521C102AC9D3BDE8F08110B54B0788
:1003E000DB0E9A40C90800EB8100016A0F249C4093
:1003F000A1430162016A1143016210BDFEE7FEE7FD
:10040000704700002DE9F0418AB00121084600F054
:100410009FF80121022000F09BF80121022000F04A
:10042000A5F8C020089002278DF8247000248DF8CC
:10043000264003258DF8255001268DF82760DFF82A
:10044000D08008A94046FFF78BFF022206214046D4
:10045000FFF7C4FF022207214046FFF7BFFF0895C0
:100460008DF824708DF826408DF825508DF8276082
:10047000284D08A92846FFF773FF022200212846CD
:10048000FFF7ACFF022201212846FFF7A7FF292032
:10049000ADF81400ADF8164044F61F600690ADF8B4
:1004A0001C401D4D05A9284600F076FA6021ADF8E4
:1004B0000010ADF80260ADF80C406946284600F027
:1004C00057F96946284600F08DF96946284600F03C
:1004D000D7F96946284600F01BFA0821284600F0A3
:1004E0007BF90821284600F0C1F90821284600F0D0
:1004F00009FA0821284600F03DFA0121284600F0BB
:100500001FF90121284600F027F90AB0BDE8F08163
:1005100000000240000402400004004070B505469F
:10052000094C2946204600F02FFA2946204600F0C3
:100530002DFA2946204600F02BFA29462046BDE830
:10054000704000F027BA000000040040704700002F
:10055000054A002903D011680143116070471168F2
:10056000814311607047000030380240054A00297D
:1005700003D0116801431160704711688143116015
:10058000704700004038024070B5244B196801F0F4
:100590000C01234C00291ED0661004291DD0082907
:1005A0001DD00460196801F0F00109091D4A545C6E
:1005B0000168E14041601C6804F4E054A40A145D41
:1005C00021FA04F484601B6803F460435B0BD25C83
:1005D000D140C16070BD0460E4E70660E2E70F4A05
:1005E000121F1168C1F38055116801F03F0135B148
:1005F000B6FBF1F11468C4F38814614305E0B4FB61
:10060000F1F11468C4F3881461431268C2F3014223
:10061000521C5200B1FBF2F10160C3E708380240FE
:100620000024F40000000020704700000CB50022F8
:10063000019200922649086840F4803008604FF427
:10064000A043086800F4003000900198401C01901D
:10065000009810B901989842F3D10868800302D538
:100660000120009000E00092009801282FD1184846
:100670004030026842F0805202601648026842F43C
:10068000404202601248083002680260026802605C
:10069000026842F480520260031F0F4A1A600A681F
:1006A00042F080720A600A689201FCD50B4940F260
:1006B00002720A60016821F003010160016841F0E3
:1006C000020101600168C1F381010229FAD10CBD68
:1006D000003802400070004010544107003C0240C6
:1006E0007047000010B51248016841F470010160C4
:1006F0001048016841F0010101600E4A00210832F2
:10070000116002680C4B1A400260031D0B4A1A600C
:10071000026822F48022026006480C300160FFF774
:1007200085FF03494FF000608039086010BD00006C
:1007300088ED00E000380240FFFFF6FE1030002494
:10074000002904D0018841F08001018070470188B0
:1007500021F0800101807047002904D0018841F018
:10076000010101807047018821F00101018070477B
:1007700030B5028C22F001020284058C8388028B42
:1007800022F0700222F003020C88144325F00202CA
:100790008D8915434A882A430D4DA84202D00D4D3C
:1007A000A8420FD122F00805CA892A4322F0040585
:1007B0008A882A4323F4807323F400730D8A1D432F
:1007C0004B8A2B438380048389684163028430BD54
:1007D0000000014000040140028B22F008020A439D
:1007E0000283704770B5028C22F010020284028CE2
:1007F0008388048B24F4E04424F440760D884FF67B
:10080000FF7404EA0525354322F020028E8904EAAC
:10081000061616434A8804EA02123243114EB042C9
:1008200002D0114EB04217D122F08002CE8904EAE4
:100830000616164326F040068A8804EA021232435E
:1008400023F4806323F400630E8A04EA86061E43C1
:100850004B8A04EA83033343838005838968816379
:10086000028470BD0000014000040140028B22F4AC
:1008700000624FF6FF7303EA0121114301837047C1
:1008800070B5028C22F480720284028C8388848B7F
:1008900024F0700424F003040D88254322F4007230
:1008A0008E894FF6FF7404EA062616434A8804EA46
:1008B00002223243114EB04202D0114EB04217D143
:1008C00022F40066CA8904EA0222324322F48066D6
:1008D0008A8804EA0222324323F4805323F400532B
:1008E0000E8A04EA06161E434B8A04EA03133343B6
:1008F000838085838968C163028470BD00000140E4
:1009000000040140828B22F008020A438283704770
:1009100070B5028C22F480520284058C8288838B0D
:1009200023F4E04323F440760C884FF6FF7303EA88
:100930000424344325F400558E8903EA06362E43F9
:100940004D8803EA05353543084EB04202D0084EC3
:10095000B04205D122F480460A8A03EA8212324369
:100960008280848389680164058470BD0000014031
:1009700000040140828B22F400624FF6FF7303EA09
:100980000121114381837047416370478163704740
:10099000C16370470164704730B50288164C174D2B
:1009A000A0420DD0A8420BD0B0F1804F08D0144B1C
:1009B000984205D0134B984202D0134B984203D172
:1009C00022F070034A881A43104B984206D0104B0D
:1009D000984203D022F440730A891A4302804A687D
:1009E000C2620A880285A04201D0A84201D1897A58
:1009F00001860121818230BD0000014000040140D8
:100A00000004004000080040000C004000100040BE
:100A100000140040FEE7FFF7F5FC4FF4FA64A51060
:100A200066102046FFF77AFD2846FFF762FC304645
:100A3000FFF774FD0120FFF768FC2046FFF76EFD0D
:100A40000320FFF762FCECE74FF04070E1EE100A84
:100A500070470000740A0008000000201000000029
:100A6000D0010008840A0008100000207006000071
:100A7000EC0100080000000001020304010203046D
:040A80000607080954
:0400000508000235B8
:00000001FF
