:020000040800F2
:10000000A8060020E10200080D2100086D1F00086D
:10001000B51F0008891C0008D52D0008000000004D
:10002000000000000000000000000000252600087D
:100030008B1C0008000000002D250008792700080F
:10004000FB020008FB020008FB020008FB0200089C
:10005000FB020008FB020008FB020008FB0200088C
:10006000FB020008FB020008FB020008FB0200087C
:10007000FB020008FB020008FB020008FB0200086C
:10008000FB020008FB020008FB0200080000000061
:10009000000000000000000000000000FB0200085B
:1000A000FB020008FB020008FB020008FB0200083C
:1000B000A5280008FB020008FB020008FB0200085C
:1000C000FB020008FB020008FB020008FB0200081C
:1000D000FB020008FB020008FB0200080000000011
:1000E000FB020008FB020008FB0200080000000001
:1000F000000000000000000000000000FB020008FB
:1001000000000000FB020008FB020008FB020008E0
:1001100000000000000000000000000000000000DF
:10012000FB020008FB020008FB020008FB020008BB
:10013000FB020008000000000000000000000000BA
:10014000000000000000000000000000FB020008AA
:10015000FB020008FB020008FB020008FB0200088B
:10016000FB020008FB020008000000000000000085
:10017000000000000000000000000000000000007F
:1001800000000000FB02000800000000000000006A
:10019000FB02000800F002F800F092F80AA090E8D4
:1001A000000C82448344AAF10107DA4501D100F032
:1001B00087F8AFF2090EBAE80F0013F0010F18BF6D
:1001C000FB1A43F001031847D4330000F433000056
:1001D000103A24BF78C878C1FAD8520724BF30C873
:1001E00030C144BF04680C60704700000023002445
:1001F00000250026103A28BF78C1FBD8520728BF37
:1002000030C148BF0B6070476E2900F03D817029F6
:1002100000F07F82662902F04686652902F0438657
:10022000672902F04086612902F03F8603681B0AB5
:1002300028BF41F08001692900F0EA80642900F0BC
:10024000E780752900F0E4806F2900F00C8278299E
:1002500000F04B82E92900F0A781E42900F0A48195
:10026000F52900F0A181EF2900F00982F82900F0BA
:100270004A820368DB0928BF41F08001632900F04E
:100280004D87732900F05287E32900F05D87F32939
:1002900000F06287002070471FB502F0FFFD00F0FC
:1002A000ADFF04000020002102F0E2FD401C606070
:1002B0000020002102F0C6FDE0601FBD10B510BD9A
:1002C00000F06EFF1146FFF7E7FF02F0A3FD01F01B
:1002D0004BF803B4FFF7F2FF03BC01F093F8000002
:1002E0000948804709480047FEE7FEE7FEE7FEE7CA
:1002F000FEE7FEE7FEE7FEE7FEE7FEE70448054906
:10030000054A064B704700007D270008950100084C
:10031000A8000020A8060020A8020020A8020020B3
:100320001CB50C46064B7B4469460090204600F005
:10033000C4F804460020694600F0D2F820461CBDEF
:10034000B701000070477047704770B50446856973
:100350000068C10601D5302600E02026C00707D07E
:1003600070BDD4E9012130469047206A401C2062CC
:100370006D1EF6D570BD70B5044685690078C0075E
:1003800007D170BDD4E9012120209047206A401C8C
:1003900020626D1EF6D570BD09684A0501D540B2D0
:1003A0007047C905FCD500B2704709684A0501D5F8
:1003B000C0B27047C905FCD580B2704770B50C4615
:1003C0000546012A05D02878800600D5EA69002371
:1003D00002E0012305E05B1C934202D2E05C0028AE
:1003E000F9D1A869E618C01AA861286A18442862D9
:1003F0002846FFF7AAFF04E0D5E9012114F8010B14
:100400009047B442F8D32846FFF7B5FF70BD00000F
:100410002DE9F0410646002410687529314616A5DD
:1004200010D0FFF7B9FF002802DA404213A507E019
:1004300031688A0701D512A502E0490704D511A544
:10044000012401E0FFF7B1FF00210A2206F1240791
:1004500009E0B0FBF2FCB0FBF2F302FB1C00303011
:1004600078541846491C0028F3D123462A463046C2
:10047000BDE8F04100F061BA000000002D0000006E
:100480002B0000002000000011680268006A53057C
:1004900001D508700AE0D30501D5088006E01306EF
:1004A00003D5C217C1E9000200E0086001207047CF
:1004B00001694A1C02610878704700B58FB0CDE928
:1004C00001310021059105497944CDE90310114618
:1004D000684600F029F90FB000BD0000E5FFFFFFFE
:1004E0000A6802F8010B0A60704700002DE9FF5FFF
:1004F00015468A460446DFF8AC80F8440027D8E960
:1005000000103E46CDE9001010E03AF816106A4699
:1005100002A800F025FE411C07D02178890603D5EA
:10052000E269391891420DD80744761C207880067C
:1005300002D5E069B84205DDAE42E6DB3AF81600C6
:100540000028E2D1A069C01BA0612046FFF7FDFE94
:10055000D8E90010CDE90010002017E03AF8181093
:100560006A4602A800F0FCFDB0F1FF3F81460BD0C7
:1005700000250DF1080B05E0D4E901211BF8050069
:1005800090476D1C4D45F7D308F10100B0428046FD
:10059000E4DB206A384420622046FFF7ECFEBDE829
:1005A000FF9F0000A22F00002DE9F0418046D21DE0
:1005B00022F007020025D2E90002F52915A614D081
:1005C000011E72F1000106DA0023D0EB030063EB99
:1005D000020211A608E0D8F800108B0701D50FA67B
:1005E00002E0490701D50EA601251146002408F1B5
:1005F000240704E000F05CF930323A55641C50EAFC
:100600000102F7D12B46324621464046BDE8F04173
:1006100000F093B9000000002D0000002B00000046
:100620002000000030B4002100F1240408E002F0B2
:100630000705D208303542EA4372DB086554491C8D
:1006400052EA0305F3D10468002310A2250707D559
:10065000A40600D421B1C46901230DA2641EC461A3
:1006600030BC00F06AB910B5044621461068FFF7A7
:100670009CFE02462046BDE810400023D2E7D21D72
:1006800022F00701D1E90023CCE7000000000000C0
:1006900030000000F0B40D460188090502D5214C58
:1006A0007C4402E01F4C7C440E34002100F12406FF
:1006B00008E002F00F071209E75D42EA03721B0926
:1006C0007754491C52EA0307F3D10278002312073A
:1006D00004D5702D06D009B1022311342246F0BC96
:1006E00000F02BB901231034F8E770B504460D462D
:1006F00021461068FFF759FE024629462046BDE80C
:1007000070400023C6E7D21D22F00703D3E900237F
:10071000C0E70368126843F0200303600823C36145
:100720000023B7E7042E00002DE9F05F8946044658
:100730004FF0000ADFF874B1FB44C0F820A0204657
:10074000E1688847002874D0252806D0D4E9012123
:100750009047206A401C2062F1E700265F46204651
:10076000E16888472028054607DB312D05D2781936
:1007700010F8200C08B10643F1E7B00701D526F0C8
:100780000406C4F81CA00027C4F818A02A2D09D01C
:10079000284602F038FB38B304EB8708303DC8F830
:1007A000185019E059F8041B204604EB87029161A8
:1007B000E1688847012F054618D1E069002820DA52
:1007C00026F020061DE0D8F8180000EB800005EBAD
:1007D00040003038C8F818002046E16888470546D0
:1007E00002F011FB0028EED1012F0AD02E2D08D1E6
:1007F0002046E16888477F1C0546022F46F0200608
:10080000C4DBA069002803DA404246F00106A0617B
:10081000F00701D026F010066C2D0BD0682D09D002
:100820004C2D39D06A2D35D0742D35D07A2D33D05A
:1008300016E038E0E1682F4620468847B842054672
:1008400009D16C2F26D04FF48060E1680643204622
:100850008847054604E06C2F1AD04FF48070064399
:100860000DB3A5F14100192802D8203546F40066E1
:100870004A462946204626604E46FFF7C5FC80B111
:1008800001280BD0F61D26F0070000F1080956E7F5
:100890004020E4E78020D8E70020D6E706F10409ED
:1008A0004DE7284652E7206ABDE8F09F942D0000EE
:1008B00030B5B0F10A024FEA900E71F100034EEA32
:1008C000817EB0EB0E0061EB91014FEA101E4EEA03
:1008D000017E10EB0E0041EB11114FEA102E4EEA93
:1008E000016E10EB0E0041EB11214FEA104E4EEA63
:1008F000014E10EB0E0041EB1141401841F1000197
:100900004FEAD00040EA41704FEAD10110EB800578
:100910004FEA810444EA907444EB01046D1944EBFE
:100920000404521BA3414FF0000348BF0A3200D514
:1009300030BD401C41F1000130BD2DE9F0470D46AE
:1009400099469246044600F124080168880604D5B9
:10095000E06921F01001216000E00120A84201DDE2
:10096000471B00E00027A1697A1902EB0900081A69
:10097000A0612078C00602D42046FFF7E6FC0026DE
:1009800008E0D4E901211AF806009047206A401CCB
:10099000761C20624E45F4DB2078C0060AD520463E
:1009A000FFF7D3FC06E0D4E9012130209047206A0C
:1009B000401C2062381EA7F10107F4DC07E0D4E9EF
:1009C000012118F805009047206A401C2062281E6B
:1009D000A5F10105F3DC2046FFF7CDFC20780006E9
:1009E00002D50220BDE8F0870120FBE770472DE922
:1009F000FF4F0C461E464FF0FF378BB0D2E9000187
:100A0000DDF860800A908A46C1F30A5505B93D4673
:100A1000002108464FF00000BAF1000F00F440003A
:100A200005DA00EB80004FF4400101EA50004FEA84
:100A30009059B9F1010F00DDB9460A9850EA4A0011
:100A40000ED044F61050A5F2FF3545432F14B8F1EF
:100A5000000F1ED07542291E1EDDC9F100021CE0E8
:100A6000B8F1010F4FF0000001D0302103E0F24354
:100A700005E02154401CB042FBDB3046002200213F
:100A800021540B99C1F80880C1E900200FB0BDE8DE
:100A9000F08FBD1B6D1CDEE74A4600DA694206A8EE
:100AA00000F0F0FB06AB93E8070003AB83E8070018
:100AB00050460A9900F0ADFC8DE80700A0F5005003
:100AC0001F3800900398002D0ADD42F21F014A46AC
:100AD0000844002303A90390684600F016FF09E0CC
:100AE000A0F500504A461F38002303A9039068462A
:100AF00000F020FF8DE807000004000C03D04FF049
:100B0000FF30410800E01046B8F1000F03D000228A
:100B1000009215461EE0751E05D4FFF7C9FE30325F
:100B200062556D1EF9D5B3460122084302D000225A
:100B30007F1C04E02078302801D100227F1E002A8B
:100B4000099784D01DE0112D07DAFFF7B1FE30328E
:100B500062556D1C50EA0102F5D1084302D000989D
:100B6000C8B10EE00021681E05E0235C625C63549E
:100B70002254401E491C8142F7DBAB46A81B401E95
:100B80000990002004F80B000B98099AC0F808801F
:100B9000C0E9002B7AE711264FF0000857E72DE94E
:100BA000F04F88460446D21D22F0070191B0D1E9EA
:100BB0000001CDE90A0102F00EF902460B98C00FC0
:100BC00001D02D2007E02068810701D52B2002E00D
:100BD000202101EAC000032A099001D0072A05DB81
:100BE00003464146204600F00DFB0BE120788006CD
:100BF00001D5E06900E00620B8F1650F814606D016
:100C0000B8F1660F18D0B8F1670F70D131E000204D
:100C1000B9F1110F009001DB112301E009F101038B
:100C20000AAA01A90CA8FFF7E2FEDDE90C70002674
:100C300009F10105834647E001204B4600904FF043
:100C400000470AAA01A90CA8FFF7D1FEDDE90DB003
:100C50000C995D46002610B909F101000D18B9EB99
:100C6000050003D4C0F1FF3609F10105A5EB090029
:100C70002BE0B9F1010F01DA4FF001090020B9F1C1
:100C8000110F0090484601DD112300E003460AAA37
:100C900001A90CA8FFF7ABFEDDE90C704D4600265C
:100CA0008346207800070AD4AB4500DA5D4601A8E8
:100CB000012D04DD411911F8011C302907D04F45E1
:100CC00002DA17F1040F04DA012082460FE06D1EEC
:100CD000EEE7002F02DCED1B3E4403E0781CA84247
:100CE00000DD7D1CB81B00F1010A4FF000472078A1
:100CF000000703D4AA4501DB4FF0FF3A0021B7F10A
:100D0000004F0DF143088DF8431024D002202B230F
:100D1000002F01DA7F422D230A21021EA0F10100DB
:100D200000DC5FB197FBF1FC97FBF1F201FB1C7C4F
:100D300017460CF1300C08F801CDEEE7A8F10100E0
:100D400003702188090501D5452100E06521A0F146
:100D5000010800F8011C09980FA9A1EB0807FF1D65
:100D600000B10120411901EBEA70A1693844081A69
:100D7000401EA0612078C00602D42046FFF7E5FAA5
:100D8000099828B1D4E901219047206A401C2062CB
:100D90002078C00622D52046FFF7D7FA1EE0002EA5
:100DA00004DBB34502DD01A8805D00E03020D4E91A
:100DB00001219047206A401C2062761CAAF10100A4
:100DC0005FEA000A0AD100F019FAC0680168405CC5
:100DD000D4E901219047206A401C2062281EA5F119
:100DE0000105DCDC07E0D4E9012118F8010B90478C
:100DF000206A401C2062381EA7F10107F3DC204660
:100E0000FFF7B9FA032011B041E600002DE9F04FD9
:100E100004460D46D21D22F0070089B0D0E90097A4
:100E20004846394601F0D7FF0246F80F01D02D237E
:100E300007E02068810701D52B2302E0202101EA89
:100E4000C0038DF820300BB1012000E00020032A00
:100E5000824601D0072A04DB2946204600F0D2F959
:100E60003FE12078800601D40D2500E0E569C7F355
:100E70000A560D2D49DA00214FEA175B08464FF05C
:100E80000000002F00F4400007DA00EB80004FF470
:100E9000400100EBD07001EA60008115012901DDFD
:100EA0004FF0FF3100224FEA850CBCF1180F06D33A
:100EB0001346ACF118004FF08052C24003E04FF4EB
:100EC000801323FA0CF30CF10C0CBCF1200F04D3AB
:100ED000ACF1200C09FA0CF001E007FA0CF0002943
:100EE0004FF0004801DD18B90FE00ED140450CD39A
:100EF00019EB02095F4121B9404502D19F4329EA1C
:100F00000209BBEB175F00D0761C2088000502D5D4
:100F10007B48784402E07A487844193808AA30239C
:100F200002F80A30037C0AF10101002E0AF1020ADC
:100F300053546A4602DC4FF0300101E04FF03101BA
:100F40004FF001088DF8001002D0A6F2FF3603E042
:100F500059EA470100D06B4E002D02DC21780907C9
:100F600004D54FF002082E218DF80110C44600214F
:100F70000BE0C7F303433F01C35C491C6D1E02F83D
:100F80000830052908F1010801DA002DF1DC002103
:100F90000CE000EB1973491C1B786D1E082902F840
:100FA00008304FEA091908F1010801DA002DF0DCD8
:100FB00021688B0602D516E0A8F10108E04505DDA1
:100FC00002EB080313F8013C302BF5D0B8F1000F09
:100FD00009DD02EB080313F8013C2E2B03D10907AE
:100FE00001D4A8F10108002D05DD3E2102F808100A
:100FF0006D1E08F10108407C002E02F8080008F17F
:10100000010804DA2D20764202F8080002E02B20C5
:1010100002F808000A214FF47A70864208F10108AC
:101020000BDB96FBF0F3303302F8083096FBF0F35D
:1010300008F1010800FB136601E0642E0CDB64205C
:1010400096FBF0F3303302F8083096FBF0F308F12A
:10105000010800FB136601E00A2E06DB96FBF1F0A7
:10106000303002F8080008F1010896FBF1F001FBAE
:101070001060303002F80800A16908F1010808EB9F
:10108000050202EB0A00081AA0612078C00602D40B
:101090002046FFF75AF9216A08AE01EB0A002062E8
:1010A00004E0D4E9012116F8010B9047BAF1010AD6
:1010B000F7D22078C00602D52046FFF746F96E46E3
:1010C00009E016F8010B3E280FD0D4E90121904722
:1010D000206A401C2062B8F10108F2D22046FFF7D6
:1010E0004AF909B00320BDE8F08F206A2844206245
:1010F00003E0D4E90121302090476D1EEBD3F8E7DF
:10110000DE25000002FCFFFF10B5436913B1AFF309
:10111000008001E0FFF752F9012010BD127800F1C4
:1011200024010A7000224A700122EDE711684FF095
:10113000FF32E9E710B5436913B1AFF3008001E076
:10114000FFF7D4F9012010BD128800F12401828438
:101150000022C2840122EDE711684FF0FF32E9E777
:1011600070B516460C46054600F040F8036893F843
:101170000101012806D0FF2C0FD8185D68B10120AD
:101180002C7070BDD3F807013246214603F20713D5
:1011900003442846BDE8704018474FF0FF3070BD4B
:1011A000754600F0EBF8AE4605006946534620F060
:1011B0000700854618B020B5FFF7A0F8BDE820402D
:1011C0004FF000064FF000074FF000084FF0000B03
:1011D00021F00701AC46ACE8C009ACE8C009ACE8B6
:1011E000C009ACE8C0098D467047000010B500F09A
:1011F00005F8001D10BD00BF791C000000487047B5
:10120000640000202DE9F0411F46044603260168D2
:10121000072A01F4006004DB08B116A505E016A555
:1012200003E008B115A500E015A521F0100020602D
:10123000A069C01EA0610FB1401EA0612046FFF74B
:1012400084F84FB1D4E9012138469047206A401C08
:101250002062C01C206206E0206AFAE7D4E901217E
:1012600015F8010B9047761EF8D22046FFF783F859
:10127000BDE8F0814E414E006E616E00494E460061
:10128000696E66002DE9F047814616468AB03548FA
:1012900078440DC88DE80D0032487844801C03ACBA
:1012A0000DC884E80D0041F69B300844372190FBBF
:1012B000F1F290FBF1F5A5F1800501FB12041B3C56
:1012C00002D56442012000E00020DFF898A08046AB
:1012D0000027FA44AAF1BE0A0EE0E0070AD032461F
:1012E000684607EB470101230AEB810100F022FB6E
:1012F0008DE8070064107F1C002CEED1194F7F444D
:10130000AE3F19E0E80715D007EB04100DF1180AFD
:1013100090E80E008AE80E00C068F04201D19819EA
:1013200008903246012306A903A800F003FB03AB93
:1013300083E807006D10641C002DE3D14FF001031A
:1013400032466946B8F1000F03A802D000F0DDFA7A
:1013500001E000F0EFFAC9E90001C9F808200AB07D
:10136000BDE8F087F022000010B50446AFF300801E
:101370002046BDE81040FEF7ACBF000000487047B3
:10138000440000204FF0013C50F8042B51F8043B7E
:101390009A4221D1A2EB0C03934313EACC1317D149
:1013A00050F8042B51F8043B9A4215D1A2EB0C03E0
:1013B000934313EACC130BD150F8042B51F8043BA0
:1013C0009A4209D1A2EB0C03934313EACC13DBD06E
:1013D0004FF00000704700BFD01A01BAB1FA81F196
:1013E00001F0180122FA01F0CB40C1F12001DBB27B
:1013F000C0B2C01A2CFA01F3D11A914311EAC311F9
:10140000E6D1704701491820ABBEFEE72600020076
:1014100070475FEA400C08BF91F0000F4FEA8C2341
:101420004FEAC12243EA51514FEA1C5018BF00F560
:10143000F0404FEA300018BF41F000415FEA6C5CB9
:1014400000F02980BCF1FF3F08BF40F080407047AA
:10145000130C06BF12044FF0100C4FF0000C130ECB
:1014600004BF12020CF1080C130F04BF12010CF19F
:10147000040C930F04BF92000CF1020CD30F04BFB5
:1014800052000CF1010C11464FF00002A0F11F00B8
:10149000A0EB0C00704711F0004F08BF704731F00F
:1014A00000413FF4D5AF0B0C06BF09044FF0100C00
:1014B0004FF0000C0B0E04BF09020CF1080C0B0FCF
:1014C00004BF09010CF1040C8B0F04BF89000CF15F
:1014D000020CCB0F04BF49000CF1010CCCF120032E
:1014E000A0EB0C0022FA03F302FA0CF241EA03012A
:1014F00000F10100704720F07F4C80EA030023F0E8
:101500007F47ACEB070303F57C5300F0004003F189
:10151000FF032DE980494FEA154B09B44FEA144304
:1015200025EA0B4E24EA03480FF2042606EB1327A4
:1015300049083E785FEA320203FB0667C7F50007F9
:1015400007FB06F64FEA54374FEAD64606F1020685
:1015500007FB066CCCF1005C4FEA1C472CEA074CF9
:1015600007FB06F40CFB06F504EB15464FEA96164E
:1015700034BF00204FF000404FEAD13706FB07FC94
:101580004FEA1C4C0CFB0BF7D21B03FB0CF761EB77
:1015900007010CFB0EF7B0EB074072EB17420CFB98
:1015A00008F734BFA2EB0742B2EB074261EB1741E9
:1015B0004FEA0C444FEA910706FB07FC4FEA1C4C2C
:1015C0000CFB0BF7B0EBC74072EB573203FB0CF789
:1015D00034BFA2EBC742B2EBC74261EB57310CFB01
:1015E0000EF7B0EBC70072EB57720CFB08F734BF75
:1015F000A2EBC702B2EBC70261EB5771039F4FEA40
:10160000816141EA921104EBCC044FEAD1374FEAF1
:10161000826206FB07FC42EA90124FEA80604FEAC2
:101620001C4C0CFB0BF7D21B03FB0CF761EB070107
:101630000CFB0EF7B0EB074072EB17420CFB08F700
:1016400034BFA2EB0742B2EB074261EB17414FEA0E
:101650008C554FEA910704EB9C2406FB07FC4FEAEC
:101660001C4C0CFB0BF7B0EBC74072EB573203FB83
:101670000CF734BFA2EBC742B2EBC74261EB573164
:101680000CFB0EF7B0EBC70072EB57720CFB08F7C0
:1016900034BFA2EBC702B2EBC70261EB577115EB87
:1016A0004C254FEA816141EA92114FEA82624FEA8A
:1016B000D13742EA901206FB07FC44F100044FEADE
:1016C00080604FEA1C4C0CFB0BF7D21B03FB0CF7A2
:1016D00061EB07010CFB0EF7B0EB074072EB174212
:1016E0000CFB08F734BFA2EB0742B2EB074261EBF9
:1016F000174115EB1C154FEA813141EA92414FEA3F
:10170000823242EA90424FEA80304FEA0C7644F14E
:10171000000448EA03434EEA0B484FF0000EB2EBD8
:10172000080C71EB030724BF624639464EEB0E0EE0
:101730004FF0000B0018524149414BEB0B0BB2EB41
:10174000080C71EB03077BF1000B24BF624639469E
:101750004EEB0E0E4FF0000B0018524149414BEB7F
:101760000B0BB2EB080C71EB03077BF1000B24BFF2
:10177000624639464EEB0E0E51EA020718BF46F09C
:10178000010616EB0E7655F1000254F1000103D567
:10179000BDE88901BDE80088BDE88901BDE80048D1
:1017A000B619524141EB0101A3F10103704780805A
:1017B0007F7E7D7C7B7A79787776767574737271AB
:1017C00071706F6E6E6D6C6C6B6A6A696868676663
:1017D00066656464636362616160605F5F5E5E5DF5
:1017E0005D5C5C5B5B5A5A59595858575756565569
:1017F00055555454535352525251515050504F4FCB
:101800004F4E4E4D4D4D4C4C4C4B4B4B4A4A4A491A
:10181000494948484847474747464646454545445D
:101820004444444343434342424242414141002BEA
:101830009C4630D477002BD01CB54FEA370703B451
:101840004FF010004FF01001BAF1000F06D0BCF1BC
:10185000000FDCBF40F0080040F008014FF000002E
:101860000FBCBDE810400BF1010BBBF1010F08BF2D
:101870005FEA170722BF12F1010211F101014FF0D7
:10188000004143F1000300F0004043EA00007047CC
:10189000F9D35708D0E746EA064613F1400F4FEA5E
:1018A00016461FDD13F1200FDFBF16430A46002145
:1018B00020335B42BED0C3F1200746EA064602FA57
:1018C00007F74FEA164646EA0706C3F1200722FA51
:1018D00003F201FA07F721FA03F14FF0000342EA9D
:1018E0000702A7E746EA020646EA06464FEA164618
:1018F00046EA0106BCBF46EA0646360C4FF0000336
:101900004FF000024FF0000194E72DE9804C9A4619
:10191000934670B491E8380007C831EA400C48BFDC
:1019200034EA430C03D5FFF7E6FDFFF780FFF0BC78
:10193000BDE8008C2DE9804C9A46934670B491E83E
:10194000380007C810F0804F08BF13F0804F03D154
:1019500000F005F8FFF76BFFF0BCBDE8008C20F04D
:101960007F4780EA030023F07F4C07EB0C03A3F5CD
:101970007C5300F00040A3F1FE0392F0000F00F052
:10198000B38095F0000F00F077802DE901494FEA10
:1019900011404FEA144621EA004800FB06FC24EA05
:1019A000064708FB06F607FB08F800FB07F718EBED
:1019B00006484CEB164C4FEA124B18EB07484FEA1F
:1019C00015464CEB174022EA0B4E0BFB06FC25EAB2
:1019D00006470EFB06F607FB0EFE0BFB07F71EEB9A
:1019E000064E4CEB164C4FF000061EEB074E4CEB30
:1019F000174B18EB0B0840F1000018EB0E0B58EBDF
:101A0000000840F100008F1A4FF000013CBFC943AD
:101A1000661B14BFB5EB040C00213CBFC943F61B89
:101A20004FEA17444EEA8E0E27EA04454FEA1C4758
:101A300004FB07622CEA074C05FB07F70CFB05F6D5
:101A400004FB0CFC16EB074642EB174216EB0C4668
:101A500042EB1C421BEB060658EB0202414146EAF0
:101A60009E0601D5BDE80189B619524141EB01013D
:101A7000A3F10103BDE801894FEA14454FEA11477C
:101A800024EA054621EA074C05FB07F406FB07F7A5
:101A90000CFB06F105FB0CFC11EB074144EB174472
:101AA0004FEA124711EB0C4144EB1C4422EA074C6D
:101AB00005FB07F206FB07F70CFB06F605FB0CFC23
:101AC00016EB074642EB174216EB0C4642EB1C4561
:101AD0006A1854F1000148BF7047B619524141EBF2
:101AE0000101A3F10103704795F0000F37D04FEAD1
:101AF00011424FEA144721EA024624EA074C02FB4E
:101B000007F106FB07F70CFB06F402FB0CFC14EBD9
:101B1000074441EB17414FEA154714EB0C4441EBE6
:101B20001C4125EA074C02FB07F506FB07F70CFBF7
:101B300006F602FB0CFC16EB074645EB174516EBC9
:101B40000C4645EB1C42121951F1000148BF704789
:101B5000B619524141EB0101A3F1010370474FEA6D
:101B600014454FEA114724EA054621EA074C05FBD4
:101B700007F106FB07F70CFB06F24FF0000605FB2A
:101B80000CFC12EB074241EB174112EB0C4251EBFC
:101B90001C4148BF7047921841EB0101A3F10103BA
:101BA00070470000F0B587B00121084600F0C0FC86
:101BB0000121042000F0BCFC0121202000F0D4FC15
:101BC0004FF40060059002258DF8185000248DF820
:101BD0001A408DF8195001268DF81B601A4F05A97F
:101BE000384600F089F808220B21384600F0C2F888
:101BF000802005908DF818608DF81A408DF81950E6
:101C00008DF81B60114D05A9284600F075F880215C
:101C1000284600F0C6F84FF416500190ADF8084081
:101C2000ADF80A40ADF80C40ADF810400820ADF812
:101C30000E00074C01A9204601F06AF80121204658
:101C400001F052F807B0F0BD000002400008024069
:101C5000001401400FB400B599B01BAA68461A9948
:101C6000FEF75EFB684600F003F819B05DF814FB60
:101C700070B50546002403E001F026F8641CE4B2C8
:101C8000285D0028F8D170BDFEE7704770B50446A6
:101C90004FF47A7502E0284600F010F8641EA4B2F2
:101CA000F9D270BD70B504464FF47A7502E028464B
:101CB000FFF7ECFF641EA4B2F9D270BD10B5044664
:101CC0000B4800F05FFC0A490A4A4FF0E0204968DF
:101CD000B1FBF2F16143416100218161016941F091
:101CE000050101610169C903FCD50421016110BD31
:101CF0003400002040420F002DE9F041002201276E
:101D00004FF0030C07FA02F50B682B40AB422CD1C5
:101D1000066853000CFA03F4A64306600E79D0F867
:101D200000809E4046EA080606600E79012E01D02A
:101D3000022E12D18668A64386604E79D0F80880BC
:101D40009E4046EA080686604668AE43466045689F
:101D50008E799640B6B235434560C568A543C560E7
:101D6000CC799C40C3681C43C460521C102AC9D360
:101D7000BDE8F08110B54B07DB0E9A40C90800EBB7
:101D80008100016A0F249C40A1430162016A114352
:101D9000016210BD0246002012690A4200D00120F3
:101DA000704781617047002A01D081617047090442
:101DB000816170472DE9F05F8346DDE90A760C9D6D
:101DC0008A469146984603213D2000F079F8044662
:101DD00004213D2000F074F840EA0420ABF8000034
:101DE00005213D2000F06CF8044606213D2000F05E
:101DF00067F840EA0420AAF8000007213D2000F01F
:101E00005FF8044608213D2000F05AF840EA04201B
:101E1000A9F800003B21D02000F052F804463C21F4
:101E2000D02000F04DF840EA0420A8F800003D2141
:101E3000D02000F045F804463E21D02000F040F8C4
:101E400040EA042038803F21D02000F039F80446D1
:101E50004021D02000F034F840EA042030804321B3
:101E6000D02000F02DF804464421D02000F028F8BE
:101E700040EA042028804521D02000F021F80446C3
:101E80004621D02000F01CF80D9940EA042008807B
:101E90004721D02000F014F804464821D02000F05B
:101EA0000FF80E9940EA04200880BDE8F09F10B5B5
:101EB00000F082F800F05BF8BDE8104000F03AB89E
:101EC00070B504460D4600F0E9F8204600F0D2F85F
:101ED00000F09CF8284600F0CDF800F097F800F0EC
:101EE000DDF844F0010000F0C5F800F08FF800F0D4
:101EF0009CF80446012000F0B2F800F0DEF820461D
:101F000070BD70B506460C46154600F0C7F8304661
:101F100000F0B0F800F07AF8204600F0ABF800F0DE
:101F200075F8284600F0A6F800F070F8BDE870409B
:101F300000F0C3B810B502223721D020FFF7E1FF2F
:101F400000226A21D020FFF7DCFF702200213C2014
:101F5000FFF7D7FF202201213C20FFF7D2FF00220C
:101F60000221BDE810403C20FFF7CBBFFEE710B5D3
:101F700000F022F801226B21D020FFF7C2FF0022DF
:101F80006C21D020FFF7BDFF09221921D020FFF7D7
:101F9000B8FF06221A21D020FFF7B3FF18221B2119
:101FA000D020FFF7AEFF18221C21BDE81040D02042
:101FB000FFF7A7BFFEE700007CB50121022000F07B
:101FC000B7FA4FF48164009403208DF805000120D6
:101FD0008DF804008DF80600044D69462846FFF789
:101FE0008BFE21462846FFF7DCFE7CBD0004024044
:101FF00010B508210448FFF7CDFE04460A20FFF77C
:102000005DFE204610BD00000004024010B5012016
:1020100000F06EF8012000F05DF8FFF7E9FF0446DC
:10202000002000F057F8204610BD70B500250120B3
:1020300000F05EF800248026012000F04BF8FFF746
:10204000D7FF012802D126FA04F00543002000F052
:1020500041F8641CE4B2082CEED3284670BD10B5DC
:1020600000F046F8012000F035F8BDE810400020EF
:1020700000F030B870B505460024802626FA04F03A
:10208000284000F035F8012000F024F8002000F08E
:1020900021F8641CE4B2082CF0D370BD10B5012007
:1020A00000F026F8012000F015F8002000F020F8DC
:1020B000BDE81040002000F00DB810B5002000F081
:1020C00017F8012000F006F8BDE81040012000F0EC
:1020D0000FB8000010B502464FF480610348FFF7C7
:1020E00062FEBDE810400A20FFF7E8BD0004024090
:1020F00010B5024608210448FFF755FEBDE8104020
:102100000A20FFF7DBBD000000040240704700001A
:1021100030B50F23C27801250178002A1FD0154A57
:10212000126802F4E062C2F5E062C2F30722C2F173
:102130000404D3404278A24084781C401443220116
:1021400001F1E02181F80024007800F01F018D40AA
:102150004009800000F1E020C0F8005130BD01F0DE
:102160001F0085404809800000F1E020C0F8805140
:1021700030BD00000CED00E070B50546002480265F
:1021800026FA04F0284000F0A3F8012000F098F8A7
:10219000002000F095F8641CE4B2082CF0D3012074
:1021A00000F08EF8002000F08BF8BDE870400120B0
:1021B000FFF784BD10B5012000F08AF8012000F07F
:1021C0007FF8002000F084F8002000F079F8BDE8E6
:1021D00010400120FFF772BD10B5002000F078F824
:1021E000012000F06DF8012000F072F8BDE8104009
:1021F0000120FFF763BD0346012000E05843491E5C
:102200004A1CFBD1704710B50C4640F0B00000F0FE
:1022100067F8102040EA141000F062F804F00F0094
:10222000BDE8104000F05CB82DE9F0411546491EAC
:10223000461ECF007006F9B2000EFFF7E4FF00243F
:102240000E48203D00EB0515285D00F05AF8641C8F
:10225000E4B2082CF8D3012000EB4600F9B2C0B27A
:10226000FFF7D1FF00242819007A00F04AF8641C17
:10227000E4B2082CF7D3BDE8F0810000AE2E0008D0
:102280002DE9F04781460F4690461E4600240A2558
:1022900012E0311B491E0A20FFF7ADFFB8FBF0F238
:1022A000B2FBF5F005FB10223819C1B230324846B6
:1022B000FFF7BAFF641CE4B2B442EAD3BDE8F0878A
:1022C00002464FF480710148FFF76DBD00040240E3
:1022D00002464FF400710148FFF765BD000402405B
:1022E00010B50446FFF766FF7820FFF745FF002092
:1022F000FFF742FF2046FFF73FFFBDE81040FFF722
:102300006BBF10B50446FFF755FF7820FFF734FF89
:102310004020FFF731FF2046FFF72EFFBDE81040B9
:10232000FFF75ABF70B58AB00121084600F000F9E6
:102330000121084600F00AF902208DF82400012549
:10234000089500248DF826408DF827408DF825004B
:10235000234E08A93046FFF7CFFC0122002130466A
:10236000FFF708FD5320ADF81400ADF816404FF606
:10237000FF700690ADF81C40AE0705A9304600F08E
:1023800065FCADF808400F21ADF81010ADF80A401B
:10239000ADF80E40ADF80C5002A9304600F0D1FA6D
:1023A0005021304600F014FC0421304600F016FCA9
:1023B00001220221304600F0F5FA0121304600F0FA
:1023C000A6FA1C208DF804008DF805508DF80650F3
:1023D0008DF8075001A8FFF79BFE0AB070BD000002
:1023E000000002402DE9F0418AB00121084600F0CA
:1023F0009FF80121022000F09BF80121022000F04B
:10240000A5F8C020089002278DF8247000248DF8CC
:10241000264003258DF8255001268DF82760DFF82A
:10242000D08008A94046FFF767FC022206214046FB
:10243000FFF7A0FC022207214046FFF79BFC08950E
:102440008DF824708DF826408DF825508DF8276082
:10245000284D08A92846FFF74FFC022200212846F4
:10246000FFF788FC022201212846FFF783FC532056
:10247000ADF81400ADF8164044F61F600690ADF8B4
:102480001C401D4D05A9284600F0E0FB6021ADF879
:102490000010ADF80260ADF80C406946284600F027
:1024A0008BFA6946284600F0C1FA6946284600F0D2
:1024B0000BFB6946284600F04FFB0821284600F038
:1024C000AFFA0821284600F0F5FA0821284600F066
:1024D0003DFB0821284600F071FB0121284600F051
:1024E00007FA0121284600F012FA0AB0BDE8F0818F
:1024F00000000240000402400004004070B50546A0
:10250000094C2946204600F071FB2946204600F080
:102510006FFB2946204600F06DFB29462046BDE8AA
:10252000704000F069BB00000004004070470000EC
:10253000054A002903D011680143116070471168F2
:10254000814311607047000030380240054A00297D
:1025500003D0116801431160704711688143116015
:102560007047000040380240054A002903D0116836
:10257000014311607047116881431160704700008A
:102580004438024070B5244B196801F00C01234C0B
:1025900000291ED0661004291DD008291DD0046012
:1025A000196801F0F00109091D4A545C0168E14015
:1025B00041601C6804F4E054A40A145D21FA04F498
:1025C00084601B6803F460435B0BD25CD140C16044
:1025D00070BD0460E4E70660E2E70F4A121F11686D
:1025E000C1F38055116801F03F0135B1B6FBF1F13F
:1025F0001468C4F38814614305E0B4FBF1F1146876
:10260000C4F3881461431268C2F30142521C5200A1
:10261000B1FBF2F10160C3E7083802400024F40086
:1026200000000020704700000CB5002201920092CB
:102630002649086840F4803008604FF4A0430868D9
:1026400000F4003000900198401C0190009810B9EF
:1026500001989842F3D10868800302D501200090C8
:1026600000E00092009801282FD1184840300268FD
:1026700042F0805202601648026842F44042026012
:10268000124808300268026002680260026842F480
:1026900080520260031F0F4A1A600A6842F080727B
:1026A0000A600A689201FCD50B4940F202720A6086
:1026B000016821F003010160016841F0020101603D
:1026C0000168C1F381010229FAD10CBD0038024032
:1026D0000070004008544107003C024010B586B02D
:1026E0002248021F831FCDE90132811ECDE903106C
:1026F0000838831E021F811F00900838FFF75AFB1D
:102700001A4C0523103C062122880220FFF7B8FD51
:102710000523628806210320FFF7B2FD0523A28866
:1027200006210420FFF7ACFDB4F9061010A0FFF756
:1027300091FAB4F908100EA0FFF78CFAB4F90A1058
:102740000BA0FFF787FAB4F90C1009A0FFF782FA83
:10275000B4F90E1006A0FFF77DFAB4F9101006B018
:1027600003A0BDE81040FFF775BA0000220000206A
:102770002535640A000000007047000010B51248BB
:10278000016841F4700101601048016841F00101E5
:1027900001600E4A00210832116002680C4B1A4099
:1027A0000260031D0B4A1A60026822F48022026054
:1027B00006480C300160FFF737FF03494FF0006017
:1027C0008039086010BD000088ED00E0003802404C
:1027D000FFFFF6FE1030002470B5048C24F00104D5
:1027E0000484058B048C25F0F3054FF6FF7606EA8A
:1027F000031313432B4324F00A020A4342F001015E
:102800000383018470BD70B5048C24F0100404842B
:10281000058B068C4FF6FF7404EA011125F473450D
:1028200004EA03332B4304EA02221A4326F0A003EE
:102830000B4343F010010283018470BDF0B5048C9A
:1028400024F480740484868B058C4FF6FF7707EAA6
:10285000012426F0F30607EA03111143314325F45E
:102860002062224342F4807281830284F0BD70B5FD
:10287000048C24F480540484858B068C4FF6FF74FA
:1028800004EA013125F4734504EA02222A4304EAEA
:102890000333134326F420420A4342F480518383D6
:1028A000018470BD10B502214C07204600F03DF8B0
:1028B000002818D0204600F036F840F602010A4AF7
:1028C000884202D90020107007E01178082904D24C
:1028D000064B23F81100491C11702046BDE810403A
:1028E000022100F011B810BD1000002024000020CB
:1028F000002904D0018841F08001018070470188DF
:1029000021F0800101807047C9430182704700298E
:1029100004D0018841F0010101807047018821F055
:10292000010101807047406B704702460020138A06
:102930000B4092890A40002B02D0002A00D00120CF
:10294000704770B506460C4625886188A2882389A1
:10295000002D0CD0042D13D0082D1AD03046FFF7CF
:1029600086FFE1883046BDE8704000F063B930462C
:10297000FFF732FFE1883046BDE8704000F03EB915
:102980003046FFF740FFE1883046BDE8704000F078
:102990003DB93046FFF752FFE1883046BDE8704050
:1029A00000F040B9002A03D082890A43828170472F
:1029B00082898A438281704730B5028C22F00102FD
:1029C0000284058C8388028B22F0700222F00302BD
:1029D0000C88144325F002028D8915434A882A4346
:1029E0000D4DA84202D00D4DA8420FD122F008058E
:1029F000CA892A4322F004058A882A4323F4807373
:102A000023F400730D8A1D434B8A2B438380048378
:102A100089684163028430BD000001400004014028
:102A2000028B22F008020A430283704770B5028CC1
:102A300022F010020284028C8388048B24F4E04488
:102A400024F440760D884FF6FF7404EA05253543DB
:102A500022F020028E8904EA061616434A8804EA08
:102A600002123243114EB04202D0114EB04217D181
:102A700022F08002CE8904EA0616164326F04006AC
:102A80008A8804EA0212324323F4806323F4006349
:102A90000E8A04EA86061E434B8A04EA8303334304
:102AA0008380058389688163028470BD00000140D2
:102AB00000040140028B22F400624FF6FF7303EA28
:102AC000012111430183704770B5028C22F480729A
:102AD0000284028C8388848B24F0700424F0030425
:102AE0000D88254322F400728E894FF6FF7404EAA4
:102AF000062616434A8804EA02223243114EB042A7
:102B000002D0114EB04217D122F40066CA8904EAFD
:102B10000222324322F480668A8804EA0222324387
:102B200023F4805323F400530E8A04EA06161E434E
:102B30004B8A04EA03133343838085838968C16326
:102B4000028470BD0000014000040140828B22F02D
:102B500008020A438283704770B5028C22F48052C7
:102B60000284058C8288838B23F4E04323F440762F
:102B70000C884FF6FF7303EA0424344325F4005510
:102B80008E8903EA06362E434D8803EA0535354320
:102B9000084EB04202D0084EB04205D122F4804621
:102BA0000A8A03EA8212324382808483896801643C
:102BB000058470BD0000014000040140828B22F4B6
:102BC00000624FF6FF7303EA0121114381837047CE
:102BD000028922F070020A4302817047028922F0C2
:102BE0000702028102890A430281704741637047EC
:102BF00081637047C163704701647047028B22F0A4
:102C00000C020283028B0A4302837047028B22F478
:102C100040620283028B4FF6FF7303EA01210A43ED
:102C200002837047828B22F00C028283828B0A43DC
:102C300082837047828B22F440628283828B4FF6BC
:102C4000FF7303EA01210A438283704730B502888B
:102C5000164C174DA0420DD0A8420BD0B0F1804FBA
:102C600008D0144B984205D0134B984202D0134B16
:102C7000984203D122F070034A881A43104B9842BD
:102C800006D0104B984203D022F440730A891A43AD
:102C900002804A68C2620A880285A04201D0A84226
:102CA00001D1897A01860121818230BD0000014075
:102CB000000401400004004000080040000C0040F7
:102CC000001000400014004010B5064C014620469C
:102CD00000F07CF88021204600F012F80028F9D09E
:102CE00010BD000000140140002904D0818941F486
:102CF000005181817047818921F4005181817047A1
:102D00000246002012880A4200D0012070470000CD
:102D10007FB504460D46208A20F44051E8880843D8
:102D20002082A08941F20C618843A9882A89114335
:102D30006A8902431143A181A08A20F44071A889C5
:102D40000843A0826846FFF71DFC1E48844202D05B
:102D50001D48844201D1039800E00298A18909042A
:102D600008D500EBC00101EB001029684900B0FB59
:102D7000F1F007E000EBC00101EB001029688900C9
:102D8000B0FBF1F06422B0FBF2F109010B096FF026
:102D900018056B4300EB8300A3891D044FF0320339
:102DA00007D503EBC000B0FBF2F000F007000843CA
:102DB00006E003EB0010B0FBF2F000F00F00084358
:102DC00020817FBD0010014000140140C1F30801C3
:102DD00081807047FEE703B401984100009850EAF3
:102DE000C12018BF04204A0D18BF40F0010040F276
:102DF000FF72B2EB515F08BF40F00200012808BF2C
:102E0000052002B0704730380A2801D201207047EF
:102E100000207047FFF786FAFFF7E4FAFFF747F85C
:102E2000FEF7C0FE4FF47A70FFF768FB0120FEF753
:102E300039FF034CFFF752FC6088FFF75FFBF9E7AF
:102E40002400002010B500290AD00878002807D0F7
:102E500005487844FEF796FA002801D0002010BDFE
:102E60000248784410BD00006A07000062070000B5
:102E700010B500290AD00878002807D00548784402
:102E8000FEF780FA002801D0002010BD02487844E7
:102E900010BD00005A070000520700004FF04070BC
:102EA000E1EE100A7047FDF77ABEFDF7AFBF0000F4
:102EB0000000000000000000000000000000000012
:102EC00000F8000000000000003330000000001097
:102ED0000C06100C0600000000000000000040C0BE
:102EE0007840C0784000043F04043F0404000070B0
:102EF00088FC08300000001820FF211E0000F008A8
:102F0000F000E018000000211C031E211E0000F04C
:102F10000888700000001E21232419272110101694
:102F20000E00000000000000000000000000000093
:102F300000E0180402000000000718204000000212
:102F40000418E00000000040201807000000404086
:102F500080F0804040000202010F010202000000E8
:102F600000F0000000000101011F0101010000004C
:102F700000000000000080B07000000000000000B1
:102F8000000000000000000101010101010100003A
:102F900000000000000000303000000000000000D1
:102FA000000080601804006018060100000000E0C6
:102FB00010080810E000000F102020100F00001073
:102FC00010F8000000000020203F202000000070CA
:102FD00008080888700000302824222130000030C2
:102FE0000888884830000018202020110E000000BA
:102FF000C02010F8000000070424243F240000F83B
:103000000888880808000019212020110E0000E01F
:10301000108888180000000F112020110E000038C1
:103020000808C83808000000003F000000000070D9
:10303000880808887000001C222121221C0000E062
:1030400010080810E0000000312222110F000000DB
:1030500000C0C00000000000003030000000000090
:103060000080000000000000806000000000000000
:103070008040201008000001020408102000404099
:1030800040404040400004040404040404000008DC
:103090001020408000000020100804020100007091
:1030A00048080808F0000000003036010000C03079
:1030B000C828E810E0000718272423140B0000009C
:1030C000C038E0000000203C23020227382008F826
:1030D000888888700000203F202020110E00C0301A
:1030E000080808083800071820202010080008F8F1
:1030F00008080810E000203F202020100F0008F8EA
:103100008888E8081000203F20202320180008F8B5
:103110008888E8081000203F200003000000C0302D
:1031200008080838000007182020221E020008F8AE
:1031300008000008F808203F210101213F20000875
:1031400008F8080800000020203F202000000000B0
:103150000808F8080800C08080807F00000008F898
:1031600088C028180800203F20012638200008F8D1
:10317000080000000000203F20202020300008F838
:10318000F800F8F80800203F003F003F200008F852
:1031900030C00008F808203F200007183F00E0106A
:1031A00008080810E0000F10202020100F0008F879
:1031B00008080808F000203F210101010000E0108C
:1031C00008080810E0000F18242438504F0008F8B1
:1031D000888888887000203F2000030C3020007011
:1031E0008808080838000038202121221C0018080F
:1031F00008F8080818000000203F2000000008F828
:1032000008000008F808001F202020201F00087870
:10321000880000C83808000007380E010000F808D0
:1032200000F80008F800033C0700073C03000818FA
:1032300068808068180820302C03032C3020083860
:10324000C800C83808000000203F20000000100817
:103250000808C8380800203826212020180000005F
:1032600000FE020202000000007F40404000000C0F
:1032700030C000000000000000010638C00000025D
:103280000202FE000000004040407F0000000000FD
:103290000402020204000000000000000000000020
:1032A000000000000000808080808080808000021C
:1032B0000204000000000000000000000000000008
:1032C0008080808000000019242222223F2008F8FC
:1032D000008080000000003F112020110E0000003F
:1032E000008080800000000E1120202011000000CE
:1032F00000808088F800000E112020103F20000080
:10330000808080800000001F222222221300008083
:1033100080F0888888180020203F202000000000CE
:10332000808080808000006B94949493600008F803
:10333000008080800000203F210000203F2000808E
:103340009898000000000020203F2020000000008E
:1033500000809898000000C08080807F000008F8FE
:10336000000080808000203F24022D3020000008D3
:1033700008F8000000000020203F2020000080808E
:10338000808080808000203F20003F20003F8080A0
:10339000008080800000203F210000203F200000AE
:1033A000808080800000001F202020201F0080805F
:1033B00000808000000080FFA12020110E0000008E
:1033C000008080808000000E112020A0FF8080807F
:1033D00080008080800020203F212000010000002C
:1033E0008080808080000033242424241900008001
:1033F00080E0808000000000001F2020000080800E
:10340000000000808000001F202020103F208080CE
:1034100080000080808000010E300806010080805E
:103420000080008080800F300C030C300F00008083
:103430008000808080000020312E0E3120008080AE
:1034400080000080808080818E70180601000080DE
:103450008080808080000021302C222130000000FC
:103460000000807C020200000000003F404000009D
:103470000000FF00000000000000FF00000000024C
:10348000027C800000000040403F00000000000679
:10349000010102020404000000000000000000001E
:1034A0000000000000000000303132333435363780
:1034B0003839414243444546403058003031323378
:1034C0003435363738396162636465664030780078
:1034D00004000008000000000000000200010000DD
:1034E00010303132333435363738396162636465D0
:1034F00066787000303132333435363738394142EE
:10350000434445465850000002400000000000A01F
:103510000000000005400000000000C8000000009E
:103520000C4000000000409C00000000194000001A
:103530000020BCBE0000000034400000BFC91B8E4C
:1035400000000004B5400000504BCFD06607E2CF2A
:10355000010000006C4100003E8251AADFEEA7345A
:1035600001000000D9420000DCB5A0E23A301F970C
:10357000FFFFFFFFB4450000FD25A0C8E9A3C14F30
:10358000FFFFFFFFFF3F0000000000800000000081
:10359000FF3F00000000008000000000E836000847
:1035A0000000002024000000D00100080C370008B3
:1035B0002400002084060000EC0100081C0000002C
:1035C00043000000F8FFFFFF0C0000000E000000A9
:1035D0000F0000002E00000010010000430000005A
:1035E000F8FFFFFF00404040404040404040414124
:1035F00041414140404040404040404040404040C8
:103600004040404040050202020202020202020261
:10361000020202020220202020202020202020025E
:1036200002020202020290909090909010101010EE
:10363000101010101010101010101010101010108A
:10364000020202020202888888888888080808081E
:1036500008080808080808080808080808080808EA
:103660000202020240000000000000000000000012
:10367000000000000000000000000000000000004A
:10368000000000000000000000000000000000003A
:10369000000000000000000000000000000000002A
:1036A000000000000000000000000000000000001A
:1036B000000000000000000000000000000000000A
:1036C00000000000000000000000000000000000FA
:1036D00000000000000000000000000000000000EA
:1036E00000000000000000000000000001020304D0
:1036F00001020304060708090000000000000000A2
:0C370000000000000000000000000000BD
:04000005080002E10C
:00000001FF
